{
  "_format": "hh-sol-artifact-1",
  "contractName": "Contri",
  "sourceName": "contracts/Contri.sol",
  "abi": [
    {
      "inputs": [],
      "stateMutability": "nonpayable",
      "type": "constructor"
    },
    {
      "anonymous": false,
      "inputs": [
        {
          "indexed": true,
          "internalType": "address",
          "name": "owner",
          "type": "address"
        },
        {
          "indexed": true,
          "internalType": "address",
          "name": "approved",
          "type": "address"
        },
        {
          "indexed": true,
          "internalType": "uint256",
          "name": "tokenId",
          "type": "uint256"
        }
      ],
      "name": "Approval",
      "type": "event"
    },
    {
      "anonymous": false,
      "inputs": [
        {
          "indexed": true,
          "internalType": "address",
          "name": "owner",
          "type": "address"
        },
        {
          "indexed": true,
          "internalType": "address",
          "name": "operator",
          "type": "address"
        },
        {
          "indexed": false,
          "internalType": "bool",
          "name": "approved",
          "type": "bool"
        }
      ],
      "name": "ApprovalForAll",
      "type": "event"
    },
    {
      "anonymous": false,
      "inputs": [
        {
          "indexed": true,
          "internalType": "address",
          "name": "previousOwner",
          "type": "address"
        },
        {
          "indexed": true,
          "internalType": "address",
          "name": "newOwner",
          "type": "address"
        }
      ],
      "name": "OwnershipTransferred",
      "type": "event"
    },
    {
      "anonymous": false,
      "inputs": [
        {
          "indexed": true,
          "internalType": "address",
          "name": "from",
          "type": "address"
        },
        {
          "indexed": true,
          "internalType": "address",
          "name": "to",
          "type": "address"
        },
        {
          "indexed": true,
          "internalType": "uint256",
          "name": "tokenId",
          "type": "uint256"
        }
      ],
      "name": "Transfer",
      "type": "event"
    },
    {
      "inputs": [
        {
          "internalType": "address",
          "name": "to",
          "type": "address"
        },
        {
          "internalType": "uint256",
          "name": "tokenId",
          "type": "uint256"
        }
      ],
      "name": "approve",
      "outputs": [],
      "stateMutability": "nonpayable",
      "type": "function"
    },
    {
      "inputs": [
        {
          "internalType": "address",
          "name": "owner",
          "type": "address"
        }
      ],
      "name": "balanceOf",
      "outputs": [
        {
          "internalType": "uint256",
          "name": "",
          "type": "uint256"
        }
      ],
      "stateMutability": "view",
      "type": "function"
    },
    {
      "inputs": [
        {
          "internalType": "uint256",
          "name": "tokenId",
          "type": "uint256"
        }
      ],
      "name": "claim",
      "outputs": [],
      "stateMutability": "nonpayable",
      "type": "function"
    },
    {
      "inputs": [
        {
          "internalType": "uint256",
          "name": "tokenId",
          "type": "uint256"
        }
      ],
      "name": "getApproved",
      "outputs": [
        {
          "internalType": "address",
          "name": "",
          "type": "address"
        }
      ],
      "stateMutability": "view",
      "type": "function"
    },
    {
      "inputs": [
        {
          "internalType": "string",
          "name": "pr",
          "type": "string"
        }
      ],
      "name": "getTokenId",
      "outputs": [
        {
          "internalType": "uint256",
          "name": "",
          "type": "uint256"
        },
        {
          "internalType": "string",
          "name": "",
          "type": "string"
        }
      ],
      "stateMutability": "view",
      "type": "function"
    },
    {
      "inputs": [
        {
          "internalType": "address",
          "name": "owner",
          "type": "address"
        },
        {
          "internalType": "address",
          "name": "operator",
          "type": "address"
        }
      ],
      "name": "isApprovedForAll",
      "outputs": [
        {
          "internalType": "bool",
          "name": "",
          "type": "bool"
        }
      ],
      "stateMutability": "view",
      "type": "function"
    },
    {
      "inputs": [],
      "name": "name",
      "outputs": [
        {
          "internalType": "string",
          "name": "",
          "type": "string"
        }
      ],
      "stateMutability": "view",
      "type": "function"
    },
    {
      "inputs": [],
      "name": "owner",
      "outputs": [
        {
          "internalType": "address",
          "name": "",
          "type": "address"
        }
      ],
      "stateMutability": "view",
      "type": "function"
    },
    {
      "inputs": [
        {
          "internalType": "uint256",
          "name": "tokenId",
          "type": "uint256"
        }
      ],
      "name": "ownerOf",
      "outputs": [
        {
          "internalType": "address",
          "name": "",
          "type": "address"
        }
      ],
      "stateMutability": "view",
      "type": "function"
    },
    {
      "inputs": [],
      "name": "renounceOwnership",
      "outputs": [],
      "stateMutability": "nonpayable",
      "type": "function"
    },
    {
      "inputs": [
        {
          "internalType": "string",
          "name": "uri",
          "type": "string"
        },
        {
          "internalType": "string",
          "name": "pr",
          "type": "string"
        }
      ],
      "name": "safeMint",
      "outputs": [],
      "stateMutability": "nonpayable",
      "type": "function"
    },
    {
      "inputs": [
        {
          "internalType": "address",
          "name": "from",
          "type": "address"
        },
        {
          "internalType": "address",
          "name": "to",
          "type": "address"
        },
        {
          "internalType": "uint256",
          "name": "tokenId",
          "type": "uint256"
        }
      ],
      "name": "safeTransferFrom",
      "outputs": [],
      "stateMutability": "nonpayable",
      "type": "function"
    },
    {
      "inputs": [
        {
          "internalType": "address",
          "name": "from",
          "type": "address"
        },
        {
          "internalType": "address",
          "name": "to",
          "type": "address"
        },
        {
          "internalType": "uint256",
          "name": "tokenId",
          "type": "uint256"
        },
        {
          "internalType": "bytes",
          "name": "data",
          "type": "bytes"
        }
      ],
      "name": "safeTransferFrom",
      "outputs": [],
      "stateMutability": "nonpayable",
      "type": "function"
    },
    {
      "inputs": [
        {
          "internalType": "address",
          "name": "operator",
          "type": "address"
        },
        {
          "internalType": "bool",
          "name": "approved",
          "type": "bool"
        }
      ],
      "name": "setApprovalForAll",
      "outputs": [],
      "stateMutability": "nonpayable",
      "type": "function"
    },
    {
      "inputs": [
        {
          "internalType": "bytes4",
          "name": "interfaceId",
          "type": "bytes4"
        }
      ],
      "name": "supportsInterface",
      "outputs": [
        {
          "internalType": "bool",
          "name": "",
          "type": "bool"
        }
      ],
      "stateMutability": "view",
      "type": "function"
    },
    {
      "inputs": [],
      "name": "symbol",
      "outputs": [
        {
          "internalType": "string",
          "name": "",
          "type": "string"
        }
      ],
      "stateMutability": "view",
      "type": "function"
    },
    {
      "inputs": [
        {
          "internalType": "uint256",
          "name": "index",
          "type": "uint256"
        }
      ],
      "name": "tokenByIndex",
      "outputs": [
        {
          "internalType": "uint256",
          "name": "",
          "type": "uint256"
        }
      ],
      "stateMutability": "view",
      "type": "function"
    },
    {
      "inputs": [
        {
          "internalType": "address",
          "name": "owner",
          "type": "address"
        },
        {
          "internalType": "uint256",
          "name": "index",
          "type": "uint256"
        }
      ],
      "name": "tokenOfOwnerByIndex",
      "outputs": [
        {
          "internalType": "uint256",
          "name": "",
          "type": "uint256"
        }
      ],
      "stateMutability": "view",
      "type": "function"
    },
    {
      "inputs": [
        {
          "internalType": "uint256",
          "name": "tokenId",
          "type": "uint256"
        }
      ],
      "name": "tokenURI",
      "outputs": [
        {
          "internalType": "string",
          "name": "",
          "type": "string"
        }
      ],
      "stateMutability": "view",
      "type": "function"
    },
    {
      "inputs": [],
      "name": "totalSupply",
      "outputs": [
        {
          "internalType": "uint256",
          "name": "",
          "type": "uint256"
        }
      ],
      "stateMutability": "view",
      "type": "function"
    },
    {
      "inputs": [
        {
          "internalType": "address",
          "name": "from",
          "type": "address"
        },
        {
          "internalType": "address",
          "name": "to",
          "type": "address"
        },
        {
          "internalType": "uint256",
          "name": "tokenId",
          "type": "uint256"
        }
      ],
      "name": "transferFrom",
      "outputs": [],
      "stateMutability": "nonpayable",
      "type": "function"
    },
    {
      "inputs": [
        {
          "internalType": "address",
          "name": "newOwner",
          "type": "address"
        }
      ],
      "name": "transferOwnership",
      "outputs": [],
      "stateMutability": "nonpayable",
      "type": "function"
    }
  ],
  "bytecode": "0x60806040523480156200001157600080fd5b506040805180820182526006815265434f4e54524960d01b60208083019182528351808501909452600384526221aa2960e91b9084015281519192916200005b91600091620000ea565b50805162000071906001906020840190620000ea565b5050506200008e620000886200009460201b60201c565b62000098565b620001cd565b3390565b600b80546001600160a01b038381166001600160a01b0319831681179093556040519116919082907f8be0079c531659141344cd1fd0a4f28419497f9722a3daafe3b4186f6b6457e090600090a35050565b828054620000f89062000190565b90600052602060002090601f0160209004810192826200011c576000855562000167565b82601f106200013757805160ff191683800117855562000167565b8280016001018555821562000167579182015b82811115620001675782518255916020019190600101906200014a565b506200017592915062000179565b5090565b5b808211156200017557600081556001016200017a565b600181811c90821680620001a557607f821691505b60208210811415620001c757634e487b7160e01b600052602260045260246000fd5b50919050565b611cd780620001dd6000396000f3fe608060405234801561001057600080fd5b50600436106101425760003560e01c80634fa1f7ae116100b857806395d89b411161007c57806395d89b41146102a8578063a22cb465146102b0578063b88d4fde146102c3578063c87b56dd146102d6578063e985e9c5146102e9578063f2fde38b1461032557600080fd5b80634fa1f7ae146102565780636352211e1461026957806370a082311461027c578063715018a61461028f5780638da5cb5b1461029757600080fd5b80631e7663bc1161010a5780631e7663bc146101d657806323b872dd146101f75780632f745c591461020a578063379607f51461021d57806342842e0e146102305780634f6ccce71461024357600080fd5b806301ffc9a71461014757806306fdde031461016f578063081812fc14610184578063095ea7b3146101af57806318160ddd146101c4575b600080fd5b61015a6101553660046116d0565b610338565b60405190151581526020015b60405180910390f35b610177610349565b6040516101669190611745565b610197610192366004611758565b6103db565b6040516001600160a01b039091168152602001610166565b6101c26101bd36600461178d565b610402565b005b6008545b604051908152602001610166565b6101e96101e4366004611863565b61051d565b604051610166929190611898565b6101c26102053660046118b1565b610547565b6101c861021836600461178d565b610578565b6101c261022b366004611758565b61060e565b6101c261023e3660046118b1565b61061c565b6101c8610251366004611758565b610637565b6101c26102643660046118ed565b6106ca565b610197610277366004611758565b61072a565b6101c861028a366004611951565b61078a565b6101c2610810565b600b546001600160a01b0316610197565b610177610824565b6101c26102be36600461196c565b610833565b6101c26102d13660046119a8565b610842565b6101776102e4366004611758565b61087a565b61015a6102f7366004611a24565b6001600160a01b03918216600090815260056020908152604080832093909416825291909152205460ff1690565b6101c2610333366004611951565b610885565b6000610343826108fb565b92915050565b60606000805461035890611a57565b80601f016020809104026020016040519081016040528092919081815260200182805461038490611a57565b80156103d15780601f106103a6576101008083540402835291602001916103d1565b820191906000526020600020905b8154815290600101906020018083116103b457829003601f168201915b5050505050905090565b60006103e682610920565b506000908152600460205260409020546001600160a01b031690565b600061040d8261072a565b9050806001600160a01b0316836001600160a01b031614156104805760405162461bcd60e51b815260206004820152602160248201527f4552433732313a20617070726f76616c20746f2063757272656e74206f776e656044820152603960f91b60648201526084015b60405180910390fd5b336001600160a01b038216148061049c575061049c81336102f7565b61050e5760405162461bcd60e51b815260206004820152603e60248201527f4552433732313a20617070726f76652063616c6c6572206973206e6f7420746f60448201527f6b656e206f776e6572206e6f7220617070726f76656420666f7220616c6c00006064820152608401610477565b610518838361097f565b505050565b60006060600d836040516105319190611a92565b9081526040519081900360200190205493915050565b61055133826109ed565b61056d5760405162461bcd60e51b815260040161047790611aae565b610518838383610a6c565b60006105838361078a565b82106105e55760405162461bcd60e51b815260206004820152602b60248201527f455243373231456e756d657261626c653a206f776e657220696e646578206f7560448201526a74206f6620626f756e647360a81b6064820152608401610477565b506001600160a01b03919091166000908152600660209081526040808320938352929052205490565b610619303383610a6c565b50565b61051883838360405180602001604052806000815250610842565b600061064260085490565b82106106a55760405162461bcd60e51b815260206004820152602c60248201527f455243373231456e756d657261626c653a20676c6f62616c20696e646578206f60448201526b7574206f6620626f756e647360a01b6064820152608401610477565b600882815481106106b8576106b8611afc565b90600052602060002001549050919050565b6106d8600c80546001019055565b60006106e3600c5490565b90506106ef3382610c13565b6106f98184610c2d565b610704333083610a6c565b80600d836040516107159190611a92565b90815260405190819003602001902055505050565b6000818152600260205260408120546001600160a01b0316806103435760405162461bcd60e51b8152602060048201526018602482015277115490cdcc8c4e881a5b9d985b1a59081d1bdad95b88125160421b6044820152606401610477565b60006001600160a01b0382166107f45760405162461bcd60e51b815260206004820152602960248201527f4552433732313a2061646472657373207a65726f206973206e6f7420612076616044820152683634b21037bbb732b960b91b6064820152608401610477565b506001600160a01b031660009081526003602052604090205490565b610818610cc7565b6108226000610d21565b565b60606001805461035890611a57565b61083e338383610d73565b5050565b61084c33836109ed565b6108685760405162461bcd60e51b815260040161047790611aae565b61087484848484610e42565b50505050565b606061034382610e75565b61088d610cc7565b6001600160a01b0381166108f25760405162461bcd60e51b815260206004820152602660248201527f4f776e61626c653a206e6577206f776e657220697320746865207a65726f206160448201526564647265737360d01b6064820152608401610477565b61061981610d21565b60006001600160e01b0319821663780e9d6360e01b1480610343575061034382610f7e565b6000818152600260205260409020546001600160a01b03166106195760405162461bcd60e51b8152602060048201526018602482015277115490cdcc8c4e881a5b9d985b1a59081d1bdad95b88125160421b6044820152606401610477565b600081815260046020526040902080546001600160a01b0319166001600160a01b03841690811790915581906109b48261072a565b6001600160a01b03167f8c5be1e5ebec7d5bd14f71427d1e84f3dd0314c0f7b2291e5b200ac8c7c3b92560405160405180910390a45050565b6000806109f98361072a565b9050806001600160a01b0316846001600160a01b03161480610a4057506001600160a01b0380821660009081526005602090815260408083209388168352929052205460ff165b80610a645750836001600160a01b0316610a59846103db565b6001600160a01b0316145b949350505050565b826001600160a01b0316610a7f8261072a565b6001600160a01b031614610ae35760405162461bcd60e51b815260206004820152602560248201527f4552433732313a207472616e736665722066726f6d20696e636f72726563742060448201526437bbb732b960d91b6064820152608401610477565b6001600160a01b038216610b455760405162461bcd60e51b8152602060048201526024808201527f4552433732313a207472616e7366657220746f20746865207a65726f206164646044820152637265737360e01b6064820152608401610477565b610b50838383610fce565b610b5b60008261097f565b6001600160a01b0383166000908152600360205260408120805460019290610b84908490611b28565b90915550506001600160a01b0382166000908152600360205260408120805460019290610bb2908490611b3f565b909155505060008181526002602052604080822080546001600160a01b0319166001600160a01b0386811691821790925591518493918716917fddf252ad1be2c89b69c2b068fc378daa952ba7f163c4a11628f55a4df523b3ef91a4505050565b61083e828260405180602001604052806000815250610fd9565b6000828152600260205260409020546001600160a01b0316610ca85760405162461bcd60e51b815260206004820152602e60248201527f45524337323155524953746f726167653a2055524920736574206f66206e6f6e60448201526d32bc34b9ba32b73a103a37b5b2b760911b6064820152608401610477565b6000828152600a60209081526040909120825161051892840190611621565b600b546001600160a01b031633146108225760405162461bcd60e51b815260206004820181905260248201527f4f776e61626c653a2063616c6c6572206973206e6f7420746865206f776e65726044820152606401610477565b600b80546001600160a01b038381166001600160a01b0319831681179093556040519116919082907f8be0079c531659141344cd1fd0a4f28419497f9722a3daafe3b4186f6b6457e090600090a35050565b816001600160a01b0316836001600160a01b03161415610dd55760405162461bcd60e51b815260206004820152601960248201527f4552433732313a20617070726f766520746f2063616c6c6572000000000000006044820152606401610477565b6001600160a01b03838116600081815260056020908152604080832094871680845294825291829020805460ff191686151590811790915591519182527f17307eab39ab6107e8899845ad3d59bd9653f200f220920489ca2b5937696c31910160405180910390a3505050565b610e4d848484610a6c565b610e598484848461100c565b6108745760405162461bcd60e51b815260040161047790611b57565b6060610e8082610920565b6000828152600a602052604081208054610e9990611a57565b80601f0160208091040260200160405190810160405280929190818152602001828054610ec590611a57565b8015610f125780601f10610ee757610100808354040283529160200191610f12565b820191906000526020600020905b815481529060010190602001808311610ef557829003601f168201915b505050505090506000610f3060408051602081019091526000815290565b9050805160001415610f43575092915050565b815115610f75578082604051602001610f5d929190611ba9565b60405160208183030381529060405292505050919050565b610a6484611119565b60006001600160e01b031982166380ac58cd60e01b1480610faf57506001600160e01b03198216635b5e139f60e01b145b8061034357506301ffc9a760e01b6001600160e01b0319831614610343565b61051883838361118d565b610fe38383611245565b610ff0600084848461100c565b6105185760405162461bcd60e51b815260040161047790611b57565b60006001600160a01b0384163b1561110e57604051630a85bd0160e11b81526001600160a01b0385169063150b7a0290611050903390899088908890600401611bd8565b602060405180830381600087803b15801561106a57600080fd5b505af192505050801561109a575060408051601f3d908101601f1916820190925261109791810190611c15565b60015b6110f4573d8080156110c8576040519150601f19603f3d011682016040523d82523d6000602084013e6110cd565b606091505b5080516110ec5760405162461bcd60e51b815260040161047790611b57565b805181602001fd5b6001600160e01b031916630a85bd0160e11b149050610a64565b506001949350505050565b606061112482610920565b600061113b60408051602081019091526000815290565b9050600081511161115b5760405180602001604052806000815250611186565b8061116584611393565b604051602001611176929190611ba9565b6040516020818303038152906040525b9392505050565b6001600160a01b0383166111e8576111e381600880546000838152600960205260408120829055600182018355919091527ff3f7a9fe364faab93b216da50a3214154f22a0a2b415b23a84c8169e8b636ee30155565b61120b565b816001600160a01b0316836001600160a01b03161461120b5761120b8382611491565b6001600160a01b038216611222576105188161152e565b826001600160a01b0316826001600160a01b0316146105185761051882826115dd565b6001600160a01b03821661129b5760405162461bcd60e51b815260206004820181905260248201527f4552433732313a206d696e7420746f20746865207a65726f20616464726573736044820152606401610477565b6000818152600260205260409020546001600160a01b0316156113005760405162461bcd60e51b815260206004820152601c60248201527f4552433732313a20746f6b656e20616c7265616479206d696e746564000000006044820152606401610477565b61130c60008383610fce565b6001600160a01b0382166000908152600360205260408120805460019290611335908490611b3f565b909155505060008181526002602052604080822080546001600160a01b0319166001600160a01b03861690811790915590518392907fddf252ad1be2c89b69c2b068fc378daa952ba7f163c4a11628f55a4df523b3ef908290a45050565b6060816113b75750506040805180820190915260018152600360fc1b602082015290565b8160005b81156113e157806113cb81611c32565b91506113da9050600a83611c63565b91506113bb565b60008167ffffffffffffffff8111156113fc576113fc6117b7565b6040519080825280601f01601f191660200182016040528015611426576020820181803683370190505b5090505b8415610a645761143b600183611b28565b9150611448600a86611c77565b611453906030611b3f565b60f81b81838151811061146857611468611afc565b60200101906001600160f81b031916908160001a90535061148a600a86611c63565b945061142a565b6000600161149e8461078a565b6114a89190611b28565b6000838152600760205260409020549091508082146114fb576001600160a01b03841660009081526006602090815260408083208584528252808320548484528184208190558352600790915290208190555b5060009182526007602090815260408084208490556001600160a01b039094168352600681528383209183525290812055565b60085460009061154090600190611b28565b6000838152600960205260408120546008805493945090928490811061156857611568611afc565b90600052602060002001549050806008838154811061158957611589611afc565b60009182526020808320909101929092558281526009909152604080822084905585825281205560088054806115c1576115c1611c8b565b6001900381819060005260206000200160009055905550505050565b60006115e88361078a565b6001600160a01b039093166000908152600660209081526040808320868452825280832085905593825260079052919091209190915550565b82805461162d90611a57565b90600052602060002090601f01602090048101928261164f5760008555611695565b82601f1061166857805160ff1916838001178555611695565b82800160010185558215611695579182015b8281111561169557825182559160200191906001019061167a565b506116a19291506116a5565b5090565b5b808211156116a157600081556001016116a6565b6001600160e01b03198116811461061957600080fd5b6000602082840312156116e257600080fd5b8135611186816116ba565b60005b838110156117085781810151838201526020016116f0565b838111156108745750506000910152565b600081518084526117318160208601602086016116ed565b601f01601f19169290920160200192915050565b6020815260006111866020830184611719565b60006020828403121561176a57600080fd5b5035919050565b80356001600160a01b038116811461178857600080fd5b919050565b600080604083850312156117a057600080fd5b6117a983611771565b946020939093013593505050565b634e487b7160e01b600052604160045260246000fd5b600067ffffffffffffffff808411156117e8576117e86117b7565b604051601f8501601f19908116603f01168101908282118183101715611810576118106117b7565b8160405280935085815286868601111561182957600080fd5b858560208301376000602087830101525050509392505050565b600082601f83011261185457600080fd5b611186838335602085016117cd565b60006020828403121561187557600080fd5b813567ffffffffffffffff81111561188c57600080fd5b610a6484828501611843565b828152604060208201526000610a646040830184611719565b6000806000606084860312156118c657600080fd5b6118cf84611771565b92506118dd60208501611771565b9150604084013590509250925092565b6000806040838503121561190057600080fd5b823567ffffffffffffffff8082111561191857600080fd5b61192486838701611843565b9350602085013591508082111561193a57600080fd5b5061194785828601611843565b9150509250929050565b60006020828403121561196357600080fd5b61118682611771565b6000806040838503121561197f57600080fd5b61198883611771565b91506020830135801515811461199d57600080fd5b809150509250929050565b600080600080608085870312156119be57600080fd5b6119c785611771565b93506119d560208601611771565b925060408501359150606085013567ffffffffffffffff8111156119f857600080fd5b8501601f81018713611a0957600080fd5b611a18878235602084016117cd565b91505092959194509250565b60008060408385031215611a3757600080fd5b611a4083611771565b9150611a4e60208401611771565b90509250929050565b600181811c90821680611a6b57607f821691505b60208210811415611a8c57634e487b7160e01b600052602260045260246000fd5b50919050565b60008251611aa48184602087016116ed565b9190910192915050565b6020808252602e908201527f4552433732313a2063616c6c6572206973206e6f7420746f6b656e206f776e6560408201526d1c881b9bdc88185c1c1c9bdd995960921b606082015260800190565b634e487b7160e01b600052603260045260246000fd5b634e487b7160e01b600052601160045260246000fd5b600082821015611b3a57611b3a611b12565b500390565b60008219821115611b5257611b52611b12565b500190565b60208082526032908201527f4552433732313a207472616e7366657220746f206e6f6e20455243373231526560408201527131b2b4bb32b91034b6b83632b6b2b73a32b960711b606082015260800190565b60008351611bbb8184602088016116ed565b835190830190611bcf8183602088016116ed565b01949350505050565b6001600160a01b0385811682528416602082015260408101839052608060608201819052600090611c0b90830184611719565b9695505050505050565b600060208284031215611c2757600080fd5b8151611186816116ba565b6000600019821415611c4657611c46611b12565b5060010190565b634e487b7160e01b600052601260045260246000fd5b600082611c7257611c72611c4d565b500490565b600082611c8657611c86611c4d565b500690565b634e487b7160e01b600052603160045260246000fdfea26469706673582212209d16093476e6ed1417c9ae0bc2ba57fb7a4ddb35fd64e4eb651d5998d2f8fb0864736f6c63430008090033",
  "linkReferences": {},
  "deployedLinkReferences": {}
}